:020000040800F2
:10000000C0390020A1010008DB1D0008FD1B00080D
:10001000D91D0008FD09000859370008000000003C
:10002000000000000000000000000000912A00080D
:10003000FF0900080000000007020008932A0008DA
:10004000BB010008BB010008BB010008BB010008A0
:10005000BB010008BB010008050D0008BB0100083A
:10006000BB010008BB010008BB010008BB01000880
:10007000BB010008BB010008BB010008BB01000870
:10008000BB010008BB010008BB0100080000000024
:10009000000000000000000000000000BB0100089C
:1000A000BB010008BB010008BB010008BB01000840
:1000B000BB0100080000000000000000BB010008B8
:1000C000BB010008BB010008BB010008BB01000820
:1000D000BB010008CD300008BB010008BB010008CF
:1000E000BB010008BB010008000000000000000088
:1000F0000000000000000000000000000000000000
:1001000000000000000000000000000000000000EF
:100110000000000000000000BB010008000000001B
:10012000BB010008BB010008BB010008BB010008BF
:10013000BB010008000000000000000000000000FB
:10014000BB010008BB010008BB010008BB0100089F
:10015000BB010008BB010008BB010008BB0100088F
:10016000BB010008BB010008000000000000000007
:1001700000000000BB0100080000000000000000BB
:10018000BB010008BB010008BB010008DFF80CD070
:1001900000F0A6FB0048004701500008C0390020CD
:1001A0000648804706480047FEE7FEE7FEE7FEE711
:1001B000FEE7FEE7FEE7FEE7FEE7FEE7192B000895
:1001C0008D010008EFF3108072B6704780F310883D
:1001D00070471F484FF0FF010170002080F309882D
:1001E0001C48012101701C484FF08051016062B62B
:1001F000FEE719484FF080510160704716484FF0F4
:1002000080510160704772B6EFF3098038B1203831
:1002100080E8F00F20ED108B10490968086000B5E8
:100220000F4880475DF804EB0E480F490A780270CA
:100230000A480E490A680260106800F019B890E890
:10024000F00F203080F309884EF0040E62B670473C
:1002500022ED00E03901002004ED00E04C01002017
:10026000FD25000836010020370100205401002040
:10027000B0EC088BB0EC08CBFFF7E1BF2DE9F05FE5
:100280000546002092469B46884606468146402405
:100290001BE0284641464746224600F062FA534694
:1002A0005A46C01A914110D311461846224600F012
:1002B00049FA2D1A67EB01084F462246012000211A
:1002C00000F040FA17EB00094E41201EA4F1010492
:1002D000DFDC484631462A46434600F000B830BCD1
:1002E000BDE8C09FD2B201E000F8012B491EFBD24D
:1002F00070470022F6E710B513460A460446194631
:10030000FFF7F0FF204610BD30B50446002003463D
:1003100000E05B1C934203D2E05CCD5C401BF8D054
:1003200030BD2DE9FE4F804681EA0300C00F0C4628
:10033000009021F0004123F00045B8EB0200A941F4
:1003400005D24046214690461C460B46024623F005
:100350000040104347D0270DC7F30A00C3F30A51EA
:100360000290401A019040286BDAC3F3130040F466
:10037000801B0098924620B10023D2EB030A63EB66
:100380000B0B01985946C0F14002504600F0DAF9D3
:1003900006460D4650465946019A00F0F2F910EB18
:1003A00008006141002487EA115284EAE7731A4386
:1003B00040D0009A62B3019A012A4FEA075215DC35
:1003C000001B61EB02014FF0004202EA0752CDE947
:1003D0000042001C41F5801132462B4600F0F2F934
:1003E00003B000F045B840462146F9E7001B61EB39
:1003F0000201001C41F5801300185B412018A2F592
:10040000001747EB030140EAD570B6196D4111E0C2
:100410006D084FEA360645EAC0754FEA0752001BE1
:1004200061EB0201001C41F5801149084FEA3000E0
:100430000019514132462B4603B000F01CB800F0C1
:10044000B2B90098012240000023D0EB020263EB16
:10045000E073009821464FEAE074B8EB000061EBCE
:100460000401E9E783F000435BE781F0004158E7CE
:1004700030BCBDE8C08F30BCBDE8C04FFFF7DFBF68
:100480002DE9FE4F81EA030404F0004421F000410D
:1004900000944FF0000B23F0004350EA01045ED0BB
:1004A00052EA03045BD0C3F30A54C1F30A552C4447
:1004B000A4F2F3340194A0FB0254C1F3130141F4FC
:1004C0008011C3F3130343F4801301FB024400FBC8
:1004D000034E840A970A44EA815447EA8357A4FBEF
:1004E000076802958D0A05FB07854FEA932C04FBEC
:1004F0000C542705029D4FEA065847EA1637B5EB1C
:1005000008056EEB070C870E920E47EA811742EA48
:100510008312A7FB0201B6EB0B0164EB00042B0D69
:1005200043EA0C335E1844EB1C50DA465146E7FBB5
:100530000201C5F313044FEA0B3343EA14534FEAA5
:100540000432019C43EA0603A4F10C040294009CCB
:10055000CDE900B400F036F903B000F003B8002094
:100560000146F9E730BCBDE8C08F2DE9F04D81EAC6
:10057000030404F0004B21F0004514464FF0000A3C
:1005800023F0004150EA050220D054EA01021DD0B8
:10059000C5F30A570246C5F31303C1F31300C1F3B1
:1005A0000A5640F4801543F48013A7EB0608101B8D
:1005B000D64608F2FD3873EB050002D308F10108B6
:1005C00001E092185B41B8F1000F03DA0020014608
:1005D000BDE8F08D00204FF48011064684460EE001
:1005E000171B73EB050705D3121B63EB05030643CB
:1005F0004CEA010C49084FEA300092185B4150EA7E
:100600000107EDD152EA030012D082EA040083EA26
:100610000501084305D0101BAB4106D2012200237F
:1006200006E000224FF0004302E06FF00102531099
:100630001AEB06004CEB085110EB0A0041EB0B01E2
:10064000BDE8F04D00F0AFB80EB540F23341029175
:100650000021CDE900110A460B4600F0B3F803B0C3
:1006600000BD3EB5CA17CB0F002450405140C01802
:100670006141DA0740F233430094CDE90123224679
:10068000234600F09FF803B030BD70B5C1F30A52A5
:1006900001F000450024C1F3130140F2FF3341F49F
:1006A00080119A4201DA002070BD40F233439A4231
:1006B000A2F2334203DC524200F053F800E09040D3
:1006C0002C43F1D0404270BD70B5C1F30A5201F025
:1006D00000450024C1F3130140F2FF3341F48011BF
:1006E0009A4202DA0020014670BD40F233439A423A
:1006F000A2F2334203DC524200F033F801E000F092
:1007000021F82C43F0D00023D0EB030063EB010170
:1007100070BD000030B5041E71F1000404DB4FF021
:100720000044404264EB0101141E73F1000405DB38
:100730001C464FF00043524263EB04038B4208BF58
:10074000824230BD202A04DB203A00FA02F1002068
:1007500070479140C2F1200320FA03F319439040FF
:100760007047202A04DB203A21FA02F0002170476A
:1007700021FA02F3D040C2F1200291400843194609
:100780007047202A06DBCB17203A41FA02F043EAF1
:10079000E07306E041FA02F3D040C2F1200291403A
:1007A00008431946704710B5141E73F1000408DAA7
:1007B000401C41F1000192185B411A4301D120F025
:1007C000010010BD2DE9F04D92469B4611B1B1FAE2
:1007D00081F202E0B0FA80F220329046FFF7B2FFD9
:1007E00004460F4640EA0A0041EA0B0153465A46C6
:1007F000084313D0114653EA010019D0C8F1400252
:100800005046FFF7AEFF05460E4650465946424653
:10081000FFF798FF084305D0012004E02046394641
:10082000BDE8F08D0020054346EAE0762C433743CF
:100830000A986305E40AA0EB08000022FD0A44EAD6
:1008400047540A3002D500200146E9E70105101996
:100850006941DDE9084500196941BDE8F04DA2E7AD
:1008600070B521F0004303430CD0C1F30A550024B6
:10087000D5EB040564EB0403D617AD1AB34102DBD4
:100880000020014670BD201841EB025170BD0EB52D
:10089000C10F80EAE0700844CA07002140F23343E8
:1008A0008DE80E000A460B46FFF78CFF03B000BD33
:1008B00030B5041E71F1000404DB4FF000444042E7
:1008C00064EB0101141E73F1000405DB1C464FF0BC
:1008D0000043524263EB0403994208BF904230BD8B
:1008E000064C074D06E0E06840F0010394E807007D
:1008F00098471034AC42F6D3FFF74CFC785400080C
:10090000985400082DE9F04D00231A461B1A8A411D
:1009100003DB00200146BDE8F08DC1F30A52C1F3AC
:10092000130141F480154FF0000BD10702D10018DC
:100930006D41521E0027044640F2FF11384601EB7C
:10094000620A3E468046024600204FF48011FFF7BF
:1009500008FFC2197141BB1846EB0100B4EB030C50
:1009600075EB000C04D3E41A65EB000517460E4640
:10097000241908F101006D4180463428E3DDF9199E
:1009800046EB0600091BA84103D24FF0FF32134685
:1009900001E0002213461BEB070046EB0A51BDE8BD
:1009A000F04DFFF700BF70B58C1810F8015B15F023
:1009B000070301D110F8013B2A1106D110F8012BD1
:1009C00003E010F8016B01F8016B5B1EF9D12B07F6
:1009D00005D40023521E0DD401F8013BFAE710F8AC
:1009E000013BCB1A921C03E013F8015B01F8015B99
:1009F000521EF9D5A142D8D3002070BDFEE7704742
:100A000010B52DED0A8BB0EE40CAF0EE60CA51EC85
:100A10001C0B9FED340B53EC102BFFF731FD41EC19
:100A20001A0B9FED321BB0EE4C0AF0EE6C0A02F08E
:100A3000EFFE9FED301B51EC100B53EC112BFFF729
:100A40001FFD41EC190B9FED2D1BB0EE4C0AF0EE93
:100A50006C0A02F0DDFE9FED2B1B51EC100B53ECEA
:100A6000112BFFF70DFD41EC180B9FED281BB0EE8D
:100A70004C0AF0EE6C0A02F0CBFE9FED261B51EC07
:100A8000100B53EC112BFFF7FBFC41EC1B0B9FED04
:100A9000231BB0EE4C0AF0EE6C0A02F0B9FE9FED9B
:100AA000211B51EC100B53EC112BFFF7E9FC53EC1D
:100AB0001B2BFFF736FC53EC182BFFF7D3FC53EC42
:100AC000192BFFF72EFC53EC1A2BFFF7CBFC9FEDF5
:100AD000171B53EC112BFFF724FC00F02BB841EC53
:100AE000100B10BD88687407B133B53F00000000DB
:100AF00000000040C4EBFA05BB618B3F0000000022
:100B0000000008401B65FD6662BA503F000000000F
:100B1000000010401E271ADE8BB3023F00000000C9
:100B200000001440AC067E9F2C9F9EBE8CDB6800AC
:100B30006F81C43FBDEC088BBDEC02CBFFF7CFBF8C
:100B400010B52DED0C8BB0EE40CAF0EE60CA51EC42
:100B50001C0B9FED3F0B53EC102BFFF791FC41EC6E
:100B60001B0B9FED3D1BB0EE4C0AF0EE6C0A02F041
:100B70004FFE9FED3B1B51EC100B53EC112BFFF77D
:100B80007FFC41EC1A0B9FED381BB0EE4C0AF0EEE7
:100B90006C0A02F03DFE9FED361B51EC100B53EC3E
:100BA000112BFFF76DFC41EC190B9FED331BB0EEE1
:100BB0004C0AF0EE6C0A02F02BFE9FED311B51EC5B
:100BC000100B53EC112BFFF75BFC41EC180B9FED66
:100BD0002E1BB0EE4C0AF0EE6C0A02F019FE9FEDEF
:100BE0002C1B51EC100B53EC112BFFF749FC41EC83
:100BF0001D0B9FED291BB0EE4C0AF0EE6C0A02F0C3
:100C000007FE9FED271B51EC100B53EC112BFFF748
:100C100037FC53EC1D2BFFF784FB53EC182BFFF72D
:100C200021FC53EC192BFFF77CFB53EC1A2BFFF73D
:100C300019FC53EC1B2BFFF774FB9FED1B1B53ECB4
:100C4000112BFFF70FFC00F033B841EC100B10BD77
:100C5000AC1C5A643BDFE73F00000000000000408E
:100C6000732EC55565DFA53F000000000000084059
:100C70002788BA0F406A533F000000000000104070
:100C8000970E4A564D29F23E000000000000144025
:100C900095D626E80B2E813E00000000000018408B
:100CA000568BA29E37E1F9BD9031772D211F13405D
:100CB000BDEC088BBDEC04CBFFF7C7BF10B59FEDB3
:100CC0000F1B2DED028BB0EE408AF0EE608A53ECE4
:100CD000112B51EC180BFFF71DFDB0EE480AF0EE9A
:100CE000680A05D8BDEC028BBDE81040FFF788BE4E
:100CF000BDEC028BBDE81040FFF722BFA4703D0A97
:100D0000D7233C4010B501F005F9012000F026F88A
:100D1000BDE8104001F012B90146064BC1F3004294
:100D200003EB4212002012680A4012F01F0F00D09D
:100D300001207047000401407047000010B50021F9
:100D40000F2003F03CFF0449084204D0BDE81040E6
:100D5000072001F043BB10BD00D02724044910B583
:100D60000A68024202D00860FFF7E8FF10BD0000E9
:100D7000140401402DE9F84FDFF86091002209F1D9
:100D8000040A0AF1040B4FF00F080BF1040E9EE069
:100D900001269640334070D04C68022C01D0122CB2
:100DA00011D1D40800EB84073D6A5407E40E08FA19
:100DB00004FC25EA0C05D1F810C00CFA04FC4CEA3E
:100DC000050CC7F820C007685400032591F804C03B
:100DD000A5400CF0030CAF430CFA04FC4CEA070CE2
:100DE000C0F800C04F68012F05D0022F03D0112F8B
:100DF00001D0122F11D18768D1F80CC0AF430CFA83
:100E000004FC4CEA070CC0F808C04768B7430E79E9
:100E1000C6F3001696403E434660C668AE438D68F2
:100E2000A5403543C5604C68E4004FD52C4C256E79
:100E300045F001052566246E22F0030504F0010447
:100E40000094284C2E19B7689407250F08FA05F46A
:100E5000A743B0F1904F04D0234CA04203D101240A
:100E60000DE000240BE0214CA04201D1022406E059
:100E70001F4CA04202D1032401E027E00724AC402C
:100E80003C43B460D9F800404D464E689C43F6039D
:100E900000D51C432C60DAF8004055464E689C4350
:100EA000B60300D51C432C60DBF800405D464E685D
:100EB0009C43F60200D51C432C60DEF800407546CA
:100EC0004E689C43B60200D51C432C60521C0B6834
:100ED00033FA02F47FF45CAF00F00CB80004014078
:100EE00000100240000001400004004800080048D3
:100EF000000C004818BCBDE8E08F42694A404261DE
:100F000070470AB18161704781627047014800688B
:100F1000704700002801002002480168491C016058
:100F2000704700002801002010B50024032000F0C5
:100F30006FF80F2000F008F808B1012401E000F07C
:100F40001BF8204610BD000070B5054609484FF457
:100F50007A7100240068B0FBF1F000F0D3FD08B115
:100F6000012404E000222946501E00F031F82046FA
:100F700070BD00002C010020094808B5016E41F049
:100F800001010166016E01F001010091816D41F0E6
:100F900080518165806D00F08050009008BD000098
:100FA0000010024000F01F02012191404009800022
:100FB00000F1E020C0F88011704700F01F0201210D
:100FC00091404009800000F1E020C0F80011704716
:100FD000F0B40E4B1B68C3F30223C3F10704042CC7
:100FE00000D904241D1D072D01D2002300E0DB1EC3
:100FF000012606FA04F56D1E0D409D409E40761EAA
:10100000164045EA0601F0BC00F0E8BE0CED00E039
:10101000064A00F0070110684FF6FF03184040EA47
:101020000120034908431060704700000CED00E008
:101030000000FA051649B0F5007F0868C0F34120AA
:1010400009D0022805D0086820F4C06040F4806010
:101050000860002070470128FBD0086820F4C060B9
:1010600040F4007008600B483222006850430A4A7E
:10107000B0FBF2F0401C00E0401E4A69520501D569
:101080000028F9D148694005E3D5032070470000E6
:10109000007000402C01002040420F000248006810
:1010A00000F4C06070470000007000402DE9F84F68
:1010B0000446002500687C4E2F4680035CD5B06D49
:1010C000A946C00009D4B06D40F08050B065B06D45
:1010D0004FF0010900F080500090DFF8D0A1DAF85D
:1010E000001041F48071CAF80010FFF70FFF80462E
:1010F00007E0FFF70BFFA0EB0800022801D903254A
:1011000032E0DAF80000C005F3D56DBBD6F89000E8
:1011100010F4407014D0216B814211D0D6F89000A9
:10112000D6F8901020F4407041F48031C6F8901049
:10113000D6F8901021F48031C6F89010C6F89000CF
:10114000C0077DD0FFF7E2FE804641F2883A05E015
:10115000FFF7DCFEA0EB08015145D0D8D6F890008F
:101160008007F5D5002D6BD02F46B9F1000F03D0C5
:10117000B06D20F08050B0652078C00707D0D6F859
:101180008800616820F003000843C6F888002078D2
:10119000800707D5D6F88800A16820F00C00084326
:1011A000C6F888002078400707D5D6F88800E1689F
:1011B00020F030000843C6F888002078800607D564
:1011C000D6F88800216920F440600843C6F88800FA
:1011D0002088800507D5D6F88800216A20F44020B1
:1011E0000843C6F888002088400507D5D6F888004F
:1011F000616A20F440100843C6F888002078400651
:1012000007D5D6F88800616920F440500843C6F835
:1012100088002078000607D5D6F88800A16920F458
:1012200040400843C6F888002088C00507D5D6F896
:101230008800E16920F440300843C6F8880000E0E7
:1012400028E0208881044FF000600ED5D6F8881081
:10125000A26A21F040611143C6F88810A16A814258
:1012600003D1F16841F48011F160216849030ED582
:10127000D6F88810E26A21F040611143C6F8881060
:10128000E16A814203D1F06840F48010F060384692
:1012900000F00EB8D6F89000216B20F4407008439F
:1012A000C6F8900061E700000010024000700040A6
:1012B00018BCBDE8E08F00002DE9F0470D460400A2
:1012C0005ED0DFF80881D8F8000000F00700A842DF
:1012D0000CD2D8F8001021F007012943C8F80010FB
:1012E000D8F8000000F00700A84249D12078384E15
:1012F000C0072BD06068032811D0022812D03168B3
:1013000098B1490500293BDAB16821F00301014396
:10131000B160FFF7FBFD074641F288390FE0316805
:101320008901EFE731688903ECE78907EAE7FFF70E
:10133000EDFDC11B494502D90320BDE8F087B06827
:10134000616800F00C00B0EB810FF0D120788007CD
:1013500005D5B068A16820F0F0000843B060D8F867
:101360000010404601F00701A9420BD9016821F0A5
:10137000070129430160006800F00700A84201D07E
:101380000120DAE72078400705D5B068E16820F44D
:10139000E0600843B0602078000706D5B068216996
:1013A00020F4605040EAC100B06000F03BF8B16842
:1013B000084AC1F30311515C01F01F01C8400649FE
:1013C0000860BDE8F0470F20FFF7BEBD00200240D7
:1013D00000100240EC5100082C010020054806498D
:1013E00000688968054AC1F30221515C01F01F01C0
:1013F000C84070472C010020001002402C52000809
:101400000548064900688968054AC1F3C221515C54
:1014100001F01F01C84070472C010020001002405D
:101420002C52000870B5264B002210469968DC68E3
:1014300011F00C0104F00306224C4FEA640508D0B9
:101440000C2904D0042925D0082925D010E0012E2C
:1014500010D11A68120704D4D3F89420C2F30322DF
:1014600002E01A68C2F30312174E56F8222079B12F
:101470000C290ED1D86800F00301D868C0F302101F
:10148000401C02290AD003290BD0B2FBF0F00AE07D
:10149000104670BD204670BD284670BDB4FBF0F00C
:1014A00001E0B5FBF0F0D968C1F306214843D968E3
:1014B000C1F34161491C4900B0FBF1F070BD00006F
:1014C000001002400024F400FC5100082DE9F8430C
:1014D00004007CD0FE4DA86800F00C06E86800F01F
:1014E00003072078C00662D576B10C2E01D1012FFA
:1014F0000AD0E0690028286878D040F00100286010
:10150000FFF704FD804659E02868800702D5E069AE
:101510000028DED0616A2868000703D5286800F03B
:10152000F00004E0D5F89400F02202EA10108142A5
:1015300016D9084601F064FA002848D1286840F01E
:10154000080028602868616A20F0F00008432860DD
:101550006868216A20F47F4040EA0120686015E055
:10156000286840F0080028602868616A20F0F000D0
:10157000084328606868216A20F47F4040EA01201F
:101580006860606A01F03CFA0028D6D1FFF74AFF94
:10159000A968D04AC1F30311515C01F01F01C84092
:1015A000CD4908600F20FFF7CFFC00287ED12DE049
:1015B000FFF7ACFCA0EB0800022878D82868800769
:1015C000F6D5286840F008002860286801E0B2E0FD
:1015D0000CE0616A20F0F000084328606868216A26
:1015E00020F47F4040EA012068600FE020F0010015
:1015F0002860FFF78BFC804605E0FFF787FCA0EB37
:1016000008000228D9D828688007F6D42078C007B7
:1016100040D0082E18D00C2E01D1032F14D06068B2
:10162000B0F5803F17D0B0F5A02F286817D020F470
:1016300080302860286820F4802028606068E0B14D
:10164000FFF764FC804614E02868800322D56068B8
:10165000002870D01EE0286840F48030EDE740F4A8
:1016600080202860F7E7FFF751FCA0EB0800642812
:10167000A3D828688003F6D50CE0FFF747FC804626
:1016800005E0FFF743FCA0EB0800642895D8286824
:101690008003F6D42078800739D5042E11D00C2E83
:1016A00001D1022F0DD0E068002801E08AE1E4E0DA
:1016B00028681DD040F480702860FFF727FC07469B
:1016C0000BE0286840050BD5E0680028C1D007E092
:1016D000FFF71CFCC01B022894D828684005F7D5EA
:1016E0006868217C20F0FE4040EA016068600EE0FE
:1016F00020F480702860FFF709FC074604E0FFF73C
:1017000005FCC01B0228B3D828684005F7D4207810
:10171000000752D560690028D5F894003CD0A16933
:1017200000F01002914223D081074FEAC07003D528
:1017300000288ED001E04CE190B1D5F8940020F063
:101740000100C5F89400FFF7E1FB074604E0FFF74E
:10175000DDFBC01B11288BD8D5F894008007F6D488
:10176000D5F89400A16920F010000843C5F8940052
:10177000D5F8940040F00100C5F89400FFF7C6FBCF
:10178000074604E0FFF7C2FBC01B112875D8D5F847
:1017900094008007F6D510E020F00100C5F8940011
:1017A000FFF7B4FB074604E0FFF7B0FBC01B1128AE
:1017B00063D8D5F894008007F6D42078400777D511
:1017C000A86D4FF00008C00009D4A86D40F080500B
:1017D000A865A86D4FF0010800F0805000903F48C8
:1017E0000168C90511D40168814641F48071016026
:1017F000FFF78CFB074604E0FFF788FBC01B0228BD
:101800003BD8D9F80000C005F6D5A068C1071FD0A5
:10181000D5F8901000F0800021F080010143C5F858
:101820009010207A400705D5D5F8900040F00400CC
:10183000C5F89000D5F8900040F00100C5F8900080
:10184000A06841F28839C8B1FFF760FB07460FE096
:10185000D5F8900020F00100C5F89000D5F8900070
:1018600020F00400EAE7FFF751FBC11B494504D80B
:10187000D5F890008007F6D513E087E0FFF746FB28
:10188000074604E0FFF742FBC11B49457ED8D5F867
:1018900090008007F6D4D5F8900020F08000C5F8BD
:1018A0009000B8F1000F03D0A86D20F08050A8651B
:1018B000207880062FD5A06A0028D5F8980019D086
:1018C00040F00100C5F89800FFF720FB07460CE048
:1018D00000100240EC5100082C0100200070004074
:1018E000FFF714FBC01B02286BD8D5F898008007BF
:1018F000F6D510E020F00100C5F89800FFF706FBD0
:10190000074604E0FFF702FBC01B022859D8D5F8B0
:1019100098008007F6D4E06AC8B30C2E59D002288C
:10192000286820F0807028600BD0E86820F0030061
:10193000E860E86820F08870E860FFF7E7FA04469E
:1019400042E0FFF7E3FA064604E0FFF7DFFA801B08
:10195000022836D828688001F7D4606B216B00011B
:1019600010380843A18F1C4A490802EB4151A26B71
:1019700041EA0221084394F840104FF07E424908A2
:1019800002EB41610843E860286801E019E01EE0CD
:1019900040F080702860E86840F08070E860FFF7F1
:1019A000B5FA044604E0FFF7B1FA001B022808D894
:1019B00028688001F7D50AE0FFF7A8FA001B022883
:1019C00002D90320BDE8F88328688001F4D4002000
:1019D000F8E70120F6E700000000E0FF2DE9F04104
:1019E000040005D00025A56294F85D0018B107E059
:1019F0000120BDE8F08184F85C50204600F044F8F6
:101A0000022684F85D602068016821F040010160D1
:101A1000E0684FF4E062904201D9002101E04FF408
:101A20008051B0F5706F02D0904200D0A562276B54
:101A3000012327B9904201D9266300E02363D4E94A
:101A400001021043D4E9042632431043228B02F4EE
:101A500000721043E2691043226A1043A26A1043E5
:101A600022681060626B606AA66910430427E2680E
:101A700007EA16463243104308432168486025664A
:101A800084F85D300020B4E7F0B587B00446142137
:101A90006846FEF72EFC1949206888422BD1184869
:101AA000016E41F480510166016E01F4805105918F
:101AB000C16C41F00101C164C06C022400F001005E
:101AC00005902020CDE9000402AA01200325052667
:101AD00082E861004FF0904769463846FFF74AF9BF
:101AE000C020CDE9000402AA002082E86100694616
:101AF0003846FFF73FF907B0F0BD00000030014065
:101B00000010024010B5401EB0F1807F01D30120CB
:101B100010BD4FF0E02460610F21601700F05EF906
:101B20000020A06107202061002010BD10B5040036
:101B300003D094F8710010B107E0012010BD00201F
:101B400084F87000204600F027F8242084F8710003
:101B50002068016821F001010160204601F04AF986
:101B60000128EBD0606A10B1204601F0B1F820687E
:101B7000416821F4904141602068816821F02A0188
:101B800081602068016841F0010101602046BDE8E4
:101B9000104001F001B9000010B586B004461421D0
:101BA0006846FEF7A6FB13492068884220D11248F8
:101BB000016E41F480410166016E01F4804105919E
:101BC000C16C41F00101C164C06C694600F00100C4
:101BD00005904FF4C0600090022001900120029017
:101BE00003200390072004904FF09040FFF7C2F8C5
:101BF00006B010BD0038014000100240FEE74FF46F
:101C00007A7400210F2002F0DAFF204600F0F8FC81
:101C1000F7E700002DE9F04387B014216846FEF78E
:101C200068FB3A48C16C41F00101C164C16C01F02C
:101C300001010591C16C41F00201C164C16C01F068
:101C400002010591C16C41F00401C164C06C002720
:101C500000F0040005900820CDE9000701244FF0B2
:101C60009049694602944846FFF784F81020CDE970
:101C70000004032569464846CDE90245FFF77AF896
:101C80002348DFF89080CDE900400226694602969D
:101C90004046FFF76FF8CDE90064CDE9027569466B
:101CA0004046FFF767F8200203958DE891006946EA
:101CB0004846FFF75FF8062003958DE85100694616
:101CC0004846FFF757F8A70300970395CDE901466B
:101CD00069461148FFF74EF8002208210620FFF759
:101CE00077F90620FFF769F9012210214846FFF72E
:101CF00008F9002202214046FFF703F90022394685
:101D00004846FFF7FEF807B0BDE8F0830010024038
:101D100000001110000400480008004810B5144CE1
:101D200012484FF4E06120604FF482706060002040
:101D3000C4E9020102212161012161614902A1611D
:101D40000821C4E9071007216062C4E90A01206381
:101D500060632046FFF742FE08B1FEF7EDFF206802
:101D6000016841F04001016010BD000000300140F9
:101D70001023002010B5174C15480C2120604FF49B
:101D8000165060600020A060E060C4E90401A0611A
:101D9000E061206260622046FFF7C8FE08B1FEF7EE
:101DA000CBFF2520FFF709F9002209212520FFF7A5
:101DB0000FF92068016841F020010160BDE8104082
:101DC00000224FF480714FF09040FFF79AB8000066
:101DD000003801403C240020FEE770470907090E47
:101DE000002806DA00F00F0000F1E02080F8141D52
:101DF000704700F1E02080F80014704730B587B0DC
:101E000000F086F8394B00249C621C705C709C7159
:101E10005C719C605C611C7103F110012046401CE8
:101E2000C0B201F8014B0428F9D39C70DC701C622D
:101E30004FF4E7612E489C6100F00AFD2C48802198
:101E4000803800F005FD2A48002200F158013F25A6
:101E5000416180F8485080F84940521CD2B2583055
:101E60005831142AF4D3446180F8485080F849402E
:101E70001F485C62D8614FF4A071A0F5707000F04B
:101E8000E7FC1C48002200F1200100F8044B521C22
:101E900040F80B1B92B200F8015B203100F8104BA8
:101EA000092AF2D304704460C57304741148D860E1
:101EB00000F09AFC802102910320CDE903400E4AF4
:101EC0004FF6FF70CDE900021F2302F5FE720021DC
:101ED0000A4800F06BF905AA09A11F2000F04CFA8E
:101EE00007B0BDE8304000F014B800003401002015
:101EF000FC2D00203C2A00207C2B0020CD2900084E
:101F000075432F4F532D49492049646C65000000EB
:101F10007047704710B5084C607901280AD1FEF768
:101F200051F92178FF2905D2491C2170BDE81040E4
:101F3000FEF74CB910BD00003401002070B5144C00
:101F40006079012822D1FEF73DF90546207820B1BD
:101F5000401E10F0FF00207013D1607888B900F0A7
:101F6000A5FCE078A17888420BD00A4951F82010EE
:101F70002162486B401C4863A068401CA060FEF7CB
:101F80003DF92846BDE87040FEF720B970BD00005D
:101F9000340100207C2D002070B505460D480078E6
:101FA00008B1002070BDFEF70DF90B490C680CB1AB
:101FB00062680A60FEF70AF954B103202070258197
:101FC00000203F216060E1732074204600F000FC97
:101FD000204670BD34010020400100202DE9F0476B
:101FE0000546007889461446032801D0012008E000
:101FF0002548007808B1022003E02448007818B191
:102000000D201070BDE8F087FEF7DCF80646288941
:10201000002730B1401E28813046FEF7D7F82770E0
:10202000F0E7DFF86C80D8F8000010F82C1F41F0C2
:1020300001010170477020F8029C284600F0A4FBC3
:102040003046FEF7C3F800F00DFCFEF7BBF806467D
:10205000D8F8000090F82D1031B1022906D0294699
:1020600000F082FB0A2002E0277001E00E202070C1
:10207000D8F8000080F82C7080F82D70C7613046C9
:10208000BDE8F047FEF7A2B834010020350100207A
:102090004C01002070B504460078032801D00120CF
:1020A00070BDFEF78FF80546A07A58B100230122D3
:1020B0001946204600F026FB2846FEF787F800F078
:1020C000D1FB09E020894FF6FF71884206D2401CFF
:1020D00020812846FEF77AF8002070BD2846FEF7DA
:1020E00075F8322070BD000010B5094C60790028E9
:1020F0000CD100F0DBFBE0780649A07051F820001D
:102100002062A061BDE81040FEF763B810BD00007A
:10211000340100207C2D0020704700002DE9FE4393
:102120001C4616460F468046FEF74CF81A490978B9
:1021300021B1FEF74BF83C2000F034B8174D55F8AC
:10214000241019B1FEF742F82820F5E7012145F8DF
:102150002410FEF73BF8002332463946404600F093
:1021600083F9002601460096019633463246204602
:10217000029600F0B9FB070007D0FEF723F845F8F8
:102180002460FEF723F83846D6E705480078012892
:10219000F9D100F067FBF6E7340100207C2D002028
:1021A0003901002006BCBDE8F88300002DE9FF4F8F
:1021B00083B01C46DDE91376DDE911A891468B4614
:1021C000FEF700F81B49097829B1FDF7FFFF3C2015
:1021D00007B000F035B8184D55F8241019B1FDF7C7
:1021E000F5FF2820F4E7012145F82410FDF7EEFF64
:1021F00033464A465946039800F036F9CDF8008038
:10220000CDE90176014652462046109B00F06CFB5A
:10221000060008D0FDF7D6FF002145F82410FDF791
:10222000D5FF3046D4E7054800780128F9D100F001
:1022300019FBF6E7340100207C2D00203901002035
:1022400030BCBDE8C08F70472DE9F04705463F48D8
:10225000007810B14020BDE8F0871F2D05D0FDF7B4
:10226000B1FF0646FF2D02D005E03E20F3E73848D7
:10227000006890F82E50DFF8DC9059F825405CB1EA
:10228000012C0ED094F83010334A94F83130505C61
:10229000984350540AD00FE03046FDF797FF432093
:1022A000D9E73046FDF792FF3D20D4E72B4894F85C
:1022B0003220017891430170E16911B1204600F0AC
:1022C00053FA606A08B100F0B3FA4FF00008A4F8BE
:1022D0002A80234F84F82C8084F82D803878FF28BA
:1022E00001D2401C38703046FDF770FF00F009FA4B
:1022F000FDF768FF0646387808B1401E3870204662
:1023000000F038F817490878401E087049F8258011
:10231000A069414680B161694161D4E905018161EB
:1023200011480168616104603046FDF74FFF0F48B6
:102330000078012806D007E0606981610C49606976
:102340000860EDE700F08EFA002084E734010020F9
:102350004C0100207C2D0020440100203801002089
:10236000350100203A0100205001002039010020F1
:1023700058010020704770472DE9F0410646144887
:102380000F461446007818B112201070BDE8F08195
:10239000FDF718FF0546FF2E03D10E48006890F8A0
:1023A0002E600D4850F82600432658B1012809D068
:1023B0003946483000F08AFA2846FDF707FF00202A
:1023C0002070E3E72846FDF701FF2670DEE70000F6
:1023D000340100204C0100207C2D002010B5044663
:1023E000FDF7F0FE1B4951F8241059B101290DD019
:1023F00091F82C20130729D512F0F70281F82C2030
:1024000008D009E0FDF7E2FE462010BDFDF7DEFE34
:10241000432010BD4A8D1AB1FDF7D8FE002010BD33
:102420000D4B91F832201C7822431A7011F8302F8E
:102430000A4B49789C5C0C439C54FDF7C7FE084846
:1024400000780128EAD100F00DFAE7E7FDF7BEFEBB
:10245000442010BD7C2D00203801002044010020C4
:10246000390100207047000010B50346AA20106013
:10247000A2F108000A24152260E82E241422C0F8D4
:10248000B4201322C0F8B0201222C0F8AC201122D0
:10249000C0F8A8201022C0F8A4200922C0F8A0206B
:1024A0000822C0F89C200722C0F898200622C0F815
:1024B00094200522C0F890200422C0F88C2003222A
:1024C000C0F888200222C0F884200122C0F88020B1
:1024D0000022C2674FF08072C0E91D32224A0267B3
:1024E0004FF01232C2664FF0033282664FF0023272
:1024F00042665210C0E917124FF011318165110187
:1025000041654FF009310165D100C1644FF00731D9
:1025100081644FF0063141644FF005310164910050
:10252000C163312181633021416329210163282165
:10253000C162272181622621416225210162242175
:10254000C161232181612221416121210161202179
:10255000C1601921816018214160172140F80419D8
:102560001621016010BD0000E929000870B504467D
:10257000FDF728FE01461D48FF2C006805D090F8A5
:102580002E00A04204D1012503E090F82E40FAE786
:102590000025174850F8240058B101280ED090F8B3
:1025A0003020144C90F83160A35CB343A3540AD09C
:1025B0000FE00846FDF70AFE482070BD0846FDF70B
:1025C00005FE432070BD0C4A90F832401378A343B7
:1025D000137010F82C2F42F0080202700846FDF725
:1025E000F5FD0DB100F03EF9002070BD4C0100205A
:1025F0007C2D00204401002038010020704700009D
:1026000070B504461148007800281DD1002C1BD05D
:10261000FDF7D8FD03460E480E4D016891F83020B5
:1026200091F83160A85CB043A85405D10A4891F8EC
:1026300032500278AA4302704C851846FDF7C6FD59
:10264000BDE8704000F00EB970BD000034010020FC
:102650004C01002044010020380100202DE9F04108
:1026600000F04EF8FDF7AEFD244DA96A491CA962A1
:10267000FDF7ACFD687901283DD1E87901260027F6
:1026800020B1012837D0022802D0EF716C6A2EE009
:10269000EE71FBE7FDF796FD618D29B3491E090434
:1026A000090C618520D194F82C1011F0370F06D059
:1026B00021F0370184F82C1084F82D6001E084F8B3
:1026C0002D7094F82C1009070ED494F832102A7942
:1026D0000A4B1143297194F83010103394F831C02B
:1026E0005A5C42EA0C025A546469FDF76FFD94F893
:1026F0002E001F28CED1BDE8F0810000340100205B
:1027000070477047F0B50E460146847A134800279B
:10271000045D0D19ED7A405D00EBC400C5B21048B0
:1027200050F825004785066290F82C60964380F8A3
:102730002C6080F82D3032070BD40A4A90F83230E2
:10274000167933431371103290F83160135D3343BF
:10275000135500F009F82846F0BD0000E2520008C9
:102760007C2D00203401002010B590F8302090F826
:1027700031408B18DA7AA243DA7204D18A7A90F85F
:10278000320082438A7210BD30B5104C00F10B024A
:10279000A16941F81C0F0B7D497D9D5C0D439D5443
:1027A000A169827A91F832301A43827291F830002E
:1027B00004F1100391F831501A5CAA431A5404D161
:1027C00091F8321020798843207130BD3401002007
:1027D0000022827211460B30491CC9B200F8012B4D
:1027E0000429F9D37047000010B58C210E4800F081
:1027F0002FF80D48002200F11C0113463F2400F879
:10280000043B521C40F8061B92B200F8014B1C31ED
:1028100000F8113B042AF2D3037043608472034929
:10282000C3720148086010BD3435002060010020EB
:10283000D0E9001200232AB1116001B14A6080681A
:1028400043627047C26800295160F8D04B60F6E7D8
:10285000002203E0491E00F8012B89B20029F9D1BA
:102860007047000070B5FDF7ADFC0E4C05462078B2
:1028700098B9607888B900F019F8E078A1788842B2
:102880000BD0094951F820102162486B401C486365
:10289000A068401CA060FDF7ACFC2846BDE8704075
:1028A000FDF794BC340100207C2D00200649054A28
:1028B00001F110030879105C1B5CD25C02EBC000D4
:1028C000C8707047E252000834010020002204E082
:1028D000521C00F8013BD2B2491C0B78002BF7D1F7
:1028E00000210170104670472DE9F05F9846DDE940
:1028F0000ABA91460D460646FDF764FC2F4FFC6967
:10290000002C57D054F8141FF961FDF75FFC44F810
:10291000145CA676002525766576E58244F808BC29
:1029200044E904A90C9824F8040C24F8028CF0085B
:10293000E5772077012306F0070103FA00F2E1763C
:10294000A27703FA01F26277A5602561E56025624E
:10295000A5626562E5623F20256384F8340084F84F
:102960003550143C2046FFF7D7FB2046FFF76BFCA1
:10297000FDF728FC0146124840F82640786AC4E971
:10298000050500B184617C6294F832003A79104305
:1029900038710A4A14F8300F10326478135C2343FC
:1029A0001354B879401CB8710846FDF70FFC00209D
:1029B00000F008B8FDF70AFC4220F9E734010020D6
:1029C0007C2D002030BCBDE8C09F0000054CFDF709
:1029D000F9FB6169491C6161FDF7F8FBFFF7CBFC6E
:1029E000F5E7000034010020044810B50068FFF747
:1029F00039FDBDE81040FF20FFF726BC4C01002048
:102A0000F8B51C4E05460024B06DC00002D5FEF797
:102A100045FB0DE0B06D40F08050B065B06D00F04A
:102A200080500090FEF73AFBB16D21F08051B16506
:102A3000B0F5007F04D0802D07D94FF003040AE0E1
:102A4000802D08D9A02D01D804E001D1022402E094
:102A5000702D00D101240848016821F007012143AD
:102A60000160006800F00700A04201D00120F8BD1D
:102A70000020F8BD0010024000200240034A116807
:102A800089B221F0380101431160704700300140E4
:102A9000704710B5FFF73EFAFFF7E0FDFEF73CFA8E
:102AA000BDE81040FFF74ABA30B5A3B044216846EC
:102AB000FDF71FFC14211EA8FDF71BFC342111A8F3
:102AC000FDF717FC4FF40070FEF7B4FA10200090E9
:102AD00000256020CDE90850012407940220CDE9AB
:102AE0000B042421CDE90E1010900D946846FEF7DA
:102AF000EDFC0F201E900320CDE91F05A002CDE9BB
:102B0000210504211EA8FEF7D7FB11A8CDE9114528
:102B1000FEF7CCFA23B030BD0D48016841F47001D6
:102B200001600C48016841F00101016000218160F1
:102B30000268094B1A4002608214C260026822F4E3
:102B40008022026081610249C003803908607047B9
:102B500088ED00E000100240FFFFF6EA70B586B095
:102B6000FEF7E2F9FFF7A0FFFFF754F8FFF702F9CD
:102B7000FFF7D4F802F096FA02F0C8FA012001F04B
:102B80009FFF401C7DD002F0BEFA414801F046FE96
:102B900048F2700002F0C6F8002002F0EDF80021C3
:102BA0001E2002F00CF80021212002F008F838491C
:102BB0000523A039374A886100213748FFF7AEFA6C
:102BC0001B23364A00213648FFF7A8FA31484FF454
:102BD0008076001DCDE90106062000250090032423
:102BE000CDE9035403462F4A29462F48FFF7DEFA62
:102BF0002C482E4A001DCDE9010607200090CDE9A2
:102C00000354034600212A48FFF7D0FA2748294AEF
:102C1000001DCDE9010608200090CDE903540346CC
:102C200000212548FFF7C2FA2248244A001DCDE9B9
:102C3000010609200090CDE90354034600212048F5
:102C4000FFF7B4FA1D48CDE901060A200090CDE94E
:102C5000035403461B4A1C491C48FFF7A7FA0620E9
:102C6000FFF784FC0720FFF781FC0820FFF77EFCBC
:102C70000920FFF77BFC0A20FFF778FCFF2006B055
:102C800000E003E0BDE87040FFF7DEBAFEE70000B9
:102C9000A00000200C0B0020593500080C23002058
:102CA000FF1B00080C0F0020B93500080C13002092
:102CB000F53100080C170020B5350008101B002066
:102CC00001310008101F0020742300208D310008FE
:102CD00090F82410C90706D001684A68836A22F474
:102CE00000321A434A6090F82410890706D501681B
:102CF0004A68C36A22F480321A434A6090F824106A
:102D0000490706D501684A68036B22F480221A43FA
:102D10004A6090F82410090706D501684A68436B99
:102D200022F400421A434A6090F82410C90606D5DE
:102D300001688A68836B22F480521A438A6090F893
:102D40002410890606D501688A68C36B22F40052F4
:102D50001A438A6090F82410490611D501684A6820
:102D6000036C22F480121A434A60016CB1F5801F93
:102D700006D101684A68436C22F4C0021A434A60D3
:102D800090F82410090606D501684A68806C22F480
:102D9000002202434A607047F8B5002504464567A3
:102DA000FEF7B4F80746206800686FF07E4600071B
:102DB00008D53B4600224FF400112046009600F053
:102DC00053F960B92068006840070AD53B460022E5
:102DD0004FF480012046009600F046F908B1032028
:102DE000F8BD202084F8710084F8720084F87050D7
:102DF0000020F8BD2DE9F047044600682369A1686A
:102E0000D4F81CC0194363691026002543EA0C035B
:102E100019438B4A03682F46DFF828C203EA0C03E4
:102E20000B43036020684168E36821F44051194373
:102E300041602168A069914201D0236A18438B68E0
:102E400023F4306303438B607F4B21687F489942B2
:102E50000DD1D0F8880010F0030006D0012839D039
:102E6000022835D0032838D136E0012635E0784BEA
:102E700099420BD1D0F8880010F00C0026D004281D
:102E800028D0082824D00C2827D125E0714B99425E
:102E90000BD1D0F8880010F0300017D0102819D0CE
:102EA000202815D0302818D116E0914215D1D0F83D
:102EB000880010F4406009D0B0F5806F0AD0B0F5FA
:102EC000006F05D0B0F5406F07D105E0002604E0A3
:102ED000022602E0042600E008265F4B4FF00008BF
:102EE0004FF40040914244D136B1022E07D0042E57
:102EF00007D0082E10D107E0FEF770FA03E018465D
:102F000002E0FEF78FFA98B3626802EB4201814259
:102F100002D8B0EB023F01D9012789E066B1022E49
:102F20000DD0042E13D0082E1BD001274B49A5F538
:102F3000407088427AD9EFE7FEF750FA09E050086E
:102F4000474B11E00023FDF799F90546EEE7FEF740
:102F500069FA6268010E05025008281841EB080161
:102F6000F0E750084FF40003C01848F10001E9E70A
:102F70005EE0E1694FF6EF7981422ED1092E1DD234
:102F8000DFE806F00508121C151C1C1C1800FEF7D3
:102F900025FA01E0FEF734FA4100606801EB5001C8
:102FA000B1FBF0F085B20AE02E496068F6E7FEF763
:102FB00039FAF1E74FF480316068EFE70127A5F1B6
:102FC00010004845A8D84FF6F07105EA0100C5F396
:102FD000420108432168C8602AE0092E21D2DFE8B7
:102FE00006F005081220162020201900FEF7F6F939
:102FF00001E0FEF705FA0146606801EB5001B1FB04
:10300000F0F085B20EE0606803EB5001F7E7FEF7E1
:1030100009FAF0E7616800EB5100B0FBF1F0F0E76E
:1030200004E00127A5F11000484584D82068C56058
:10303000C4F860803846C4F86480BDE8F0870000BA
:1030400000800040F369FFEF0038014000100240AB
:1030500000440040004800400024F400FFFC0F0042
:10306000000024F40048E8012DE9F0411E4617460F
:1030700088460446069D1CE0681C1AD025B1FDF761
:1030800045FF801BA84214D92068016821F4D07143
:1030900001602068816821F001018160202084F8AE
:1030A000710084F87200002084F870000320BDE8ED
:1030B000F0812068C16938EA010004D00020B842DC
:1030C000DAD00020F3E70120F9E7000010B5FEF7A1
:1030D00021FF0A480068C169C943890607D4018BEA
:1030E00041F0080101830920FFF778F901E0082188
:1030F0000162BDE81040FEF721BF00003C24002023
:10310000DFF87C801F4F204CA8F1C8060025D8F8B6
:103110000000808CC1B22088020428D442041BD550
:103120000A2923D140F4004020803078012801D0C2
:103130000A200EE07078102804D13D8025800520FB
:10314000FFF74CF97078112811D1012038802580C3
:103150000520FFF743F90AE00D290CD0C0F30D025A
:10316000401C80B2B1542080C72800D92580FF20A0
:10317000FFF7FCF9CBE740F480402080F7E7000040
:103180003C240020020000201C010020DFF85C909D
:10319000174D09F1C8084FF0000A4FF480764FF040
:1031A000904728880122C0F30D0431463846FDF7C8
:1031B000A8FE0020CC4643460AE01A681CF800101E
:1031C00011851A68D169C9434906FBD4401CC0B2B5
:1031D000A042F2D3A5F800A0002231463846FDF700
:1031E00090FEFF20FFF7C2F9DBE700007423002008
:1031F0001C0100202DED0C8B84B04FF09049DFF8BE
:1032000024A3DFF81CB39FEDC8CBAAF180040022F1
:1032100002214846FDF775FE002001F089FDC44EED
:103220000121304601F055FD002001F019FDFF207D
:10323000FFF79CF903AA0021E069FEF7CFFE002109
:103240000F2001F0BCFC40047ED54FF480420021E9
:103250000F2001F01AFE0021102001F0B0FCC0F395
:103260000901A180B1F5806F03D80022AC4801F0BC
:10327000E2FC4FF00008AB498BF802809BF8070096
:103280002C316070C87101F10C071B317871C87165
:103290005D460A221B39A248FDF736F800287DD189
:1032A0000021304601F015FD01F084FEA14AC4E979
:1032B0000E01801841F10001000A40EA016001F0AE
:1032C00003FD0021122001F06BFCFDF7BDF9C4E9FC
:1032D0001C010221122001F063FCFDF7B5F941EC5D
:1032E000100B56468AED000B53EC102B94ED1C0B83
:1032F00051EC100BFDF739F9B0EE4C8AF0EE6C8A08
:1033000053EC182BFDF7BCF8C6E904014FF4FA7032
:1033100001F0F7FC41F2CC0001F00AFD207AB87010
:10332000002239460F2001F0E6FD012200210F2086
:1033300001F0F2FD032001F051FD7F4F00210F202D
:1033400001F03DFC384200E086E02061F6D0A06844
:10335000401CA060208A40047ED54FF481420021A9
:103360000F2001F092FD0021102001F028FC00F058
:103370007F01A180182903D80022694801F05BFC75
:10338000A878E060674985F802800A2247316448DE
:10339000FCF7BAFF002801D1042100E0BBE0484659
:1033A000FDF7ABFD0021122001F0FAFBFDF74CF90F
:1033B000C4E91E010221122001F0F2FBFDF744F9DD
:1033C000C6E9020196ED000B53EC102B94ED1C0B9B
:1033D00051EC100BFDF7C9F853EC182BFDF750F822
:1033E000C6E9060101F0F9FDC4E9100101F0E2FDB2
:1033F000C4E912014A4869460A3001F0A7FD48486D
:1034000001A90E3001F0A2FD454802A9123001F0D9
:103410009DFD019800998046A76BA66C256C401A0B
:10342000FDF712F941EC1B0B701BFDF70DF941EC98
:103430001A0B0299A1EB0800FDF706F941EC190BF4
:10344000E81BFDF701F941EC180B53EC1A2B51EC7A
:103450001B0BFCF766FF00E056E053EC192BFCF762
:1034600060FF53EC182BFCF75CFF41EC1D0B53EC99
:10347000182B51EC190BFDF703F841EC180B53EC2A
:103480001A2B51EC1B0BFCF7FBFF53EC182BFCF732
:10349000E9FF53EC1D2BFDF768F8FDF715F9FDF773
:1034A000E0F89FED261B53EC112BFCF7E9FF41ECF4
:1034B000100B9FED241B84ED140B53EC112BFCF728
:1034C000DFFF41EC100B84ED160BFDF7F7FB94EDDD
:1034D000161B51EC100B53EC112BFCF722FF41ECA7
:1034E000100B9FED1A1B84ED1A0B53EC112BFCF7FC
:1034F000C7FFFDF7CAF80021606100F02FF9FDF762
:10350000A3F8C4E9180106E0124A00210F2001F0D7
:10351000BCFC01F0CCFBE069FEF7BCFD77E60000E7
:1035200068010020800000200000000000408F4063
:1035300000D023240000280A00D02724FA48CE3BDC
:103540001835B13D0000001319DDB1410000000045
:1035500000005940009027240E4C608820B10128BB
:103560000AD0022812D10EE00BA000F02FF906209D
:10357000FEF734FF072003E00720FEF72FFF0620A9
:10358000FEF7F4FF02E00820FEF728FFFF20FEF719
:10359000EDFFE2E7000000204E6F77204D6F64657D
:1035A0006C20697320776F726B20617320544147E0
:1035B0000D0A0000FEE70000DFF8889108B5DFF88B
:1035C00080A140F68C2B00264FF090480527A9F1EA
:1035D000DF0401F049FA6A460021E069FEF7FEFCCB
:1035E0000021504601F075FB962001F08AFB5846F9
:1035F00001F09EFB207A89F80200002251490C203C
:1036000001F079FC002211460C2001F085FC02201B
:1036100001F0E4FB00210F2001F0D1FA2061000647
:10362000F8D502214046FDF768FC474D00210F20E8
:1036300001F0C5FA28422061F8D0A068401CA060C3
:10364000208A400473D54FF4814200210F2001F0FD
:103650001CFC0021102001F0B2FA00F07F011429B7
:1036600003D80022394801F0E6FA384835490A22E1
:1036700086700C31FCF748FEF0BB01F0AEFCC4E9EB
:10368000080101F097FC324AC4E90A01801841F1AF
:103690000001050A45EA0165284601F015FB25F001
:1036A0000100010E0002C4E90C012648D4E90823F8
:1036B000253001F058FC2348D4E90A23293001F0D1
:1036C00052FC2048D4E90C232D3001F04CFC1D495C
:1036D000207A1B3100228870182001F00CFC012296
:1036E0000021182001F018FC012001F077FB0021D7
:1036F0000F2001F064FA00E00FE00006F7D5802209
:1037000000210F2001F0C1FBA0680421401CA06033
:103710004046FDF7F2FB267000E02770E069FEF7F7
:10372000B9FC20781430FEF76BFF52E7FFE7094A37
:1037300000210F2001F0A9FB01F0B9FAEDE700002C
:1037400000D02324DF00002000D0272468010020BF
:1037500000001C0C00902724FEE70000F0B5194E75
:10376000194CC1EBC103777854F82320002504EBF2
:1037700083018FB1871A072F02D8121A072A06D998
:103780004A68521C4A60032A03D344F823004D6060
:10379000757054F82300F0BD824210D04F68042F9A
:1037A00002D07F1C4F60F4E7871A072F02D8121A45
:1037B000072A02D90120707001E044F823004D600F
:1037C000E7E7000024010020D4270020014A024935
:1037D00001F000B87D4F00082001002003B40198DB
:1037E0004100009850EAC12018BF04204A0D18BFBC
:1037F00040F0010040F2FF72B2EB515F08BF40F0B1
:103800000200012808BF052002B070470000000038
:103810002DE9F04D2DED040B2DED0E8B96B0DDE96D
:103820002550279CDDF890A025F0004624F00048A4
:10383000BAF1000F14BF0121002101EB4502FC4940
:1038400053184A1093422AD3002814BF012300239F
:1038500003EB44030B44F7498B4220D358EA0001A1
:103860009FEDF59B76D0DFF8D8B35D4503D1BAF173
:10387000000F05D188E0BAF1000F08BF002100D089
:10388000012101EB450111F5001F08D8002814BFE4
:103890000121002101EB440111F5001F0BD99DED21
:1038A000261B9DED240B16B000F0DABD04B0BDE878
:1038B000F04D00F081BE0027002DBCBFE1498845D6
:1038C00021DAE1498845A8BF02271CDAC3451ADC82
:1038D000DE4901EB2851142908DDC1F1340220FA38
:1038E00002F101FA02F282420DD108E058B9C1F1A9
:1038F000140228FA02F101FA02F2424503D101F062
:103900000101C1F1020756EA0A0124D1002C22DA92
:10391000002D18BF022F01D0012F0AD0022000F085
:1039200097FE16B000F0A2BD04B0BDE8F04D00F067
:103930002BBE022000F08CFE00F026FE51EC100B96
:1039400081F0004141EC100B16B000F095BD04B0C1
:10395000BDE8F08D18E09FEDBEAB9FEDBF8B00285A
:1039600071D1B848804522D105F1804010F5801012
:1039700008BFBAF1000F07D0B3450ADC002CA8BF7E
:103980009DED260BE0DA0DE0B0EE490AF0EE690A93
:10399000DAE7002C06DA9DED260B51EC100B81F0D6
:1039A00000416FE0AE48784490ED000BCCE7D8457D
:1039B0004DD1002C48DA2EB186423AD1BAF1000F2F
:1039C00042D126E0BAF1000F13D0022000F040FEF1
:1039D00000F00EFE8DED020B9DED240B8DED000B26
:1039E00010EE900A039961F31E0003909DED020B07
:1039F000AAE78DED02AB9DED240B1AEE901A10EEA6
:103A0000900A8DED000B61F31E0003909DED020BFB
:103A10009AE78DED028B9DED240B18EE901A10EEB7
:103A2000900A8DED000B61F31E0003909DED020BDB
:103A30008AE709DA9DED240B51EC190B53EC102B9E
:103A4000FCF793FD1EE020E09DED240B7CE7864211
:103A50001BDAB4F1804F0DD0A4F10050B0F1FF504B
:103A600013D1002D11DB9DED240B51EC100B01F057
:103A700050FB07E09DED240B53EC102B51EC100B89
:103A800000F0C2BC41EC100B5EE79DED240B51EC45
:103A9000100B01F04FFABAF1000FCDE90E0142D13F
:103AA0009FED710B46B3A6F1E040B0F17F600CD002
:103AB0005E4538D1002D00DAA7B3022F0CBF0120DC
:103AC0004FF0FF30FCF7E3FEDCE7002D01DD002CBA
:103AD0000DDA002D01DD002C1FDB002D16DA002C85
:103AE00014DB012F08BF9FED620B3FF42DAFB0EE4A
:103AF0004A0AF0EE6A0A27E7022F18BF002D0CD001
:103B0000012F0AD1002DFFF61FAF06E0002DB8BF30
:103B1000002C08DA012F3FF417AFB0EE480AF0EEA0
:103B2000680A11E71BE0012000EBE57050EA07018D
:103B300015D0791EB0EE498AF0EE698A084308BFB5
:103B40009FED4D8B4E480025804570DD4D494E4818
:103B5000884514DDB0420DDB002C19DB2FE001207D
:103B600000F076FD16B000F08DBC04B0BDE8F04D5D
:103B700000F02EBDB34502DC002C09DC1FE08642BC
:103B800002DA002C1BDA03E05E452BDD002C16DD8B
:103B9000022000F05DFD00F02BFD8DED020B53ECDB
:103BA0001A2B51EC180BFCF76BFCCDE900010399C3
:103BB000019861F31E0003909DED020BC4E6022004
:103BC00000F046FD00F024FD10EE901A18EE900A69
:103BD0008DED020B8DED008B61F31E0003909DEDCA
:103BE000020BB1E69DED0E0B53EC192B51EC100BB3
:103BF000FCF738FC9FED260BCDE9080153EC102BA8
:103C00009DED080B51EC100BFCF73AFC9FED221BCD
:103C100053EC112BFCF729FC9DED081B53EC112BE9
:103C2000FCF72EFC9FED1E1B53EC112B3CE08CE0AF
:103C3000FFFF1F00FFFF0F00000000000000F03F2B
:103C40000000F03F0000F07F0000404301FCFFFF58
:103C5000000000000000F07F0000000000000000F5
:103C6000C61A0000000000000000000000000080F4
:103C7000000000000000F0FF000000000000F0BFA6
:103C80000000E0410000F043FFFFEF3F00000000B4
:103C9000000000000000D03F555555555555D53F03
:103CA000000000000000E03FFCF7DFFB9DED080B8B
:103CB00041EC1A0B53EC102B51EC100BFCF7E0FB12
:103CC00053EC1A2BFCF7DCFB41EC1A0B9FEDFE0BBF
:103CD00053EC102B9DED080B51EC100BFCF7D0FBB7
:103CE00041EC1B0B9FEDFA0B51EC1A0B53EC102B14
:103CF000FCF7C6FB41EC1A0B9FEDF70B53EC102BB6
:103D00009DED080B51EC100BFCF7BAFB53EC1A2B92
:103D1000FCF7A8FB41EC1A0B51EC1B0B53EC1A2BD4
:103D2000FCF7FFFA0690CDE906519DED060B53EC2A
:103D30001B2B51EC100BFCF795FB53EC1A2BFCF7EB
:103D400094FB41EC100B00F0A1B90020B6F5801FE8
:103D50000EDA9FEDE30B53EC102B9DED0E0B51ECA7
:103D6000100BFCF78DFBCDE90E016FF034000E4611
:103D700000EB2650A0F2FF37C6F31300DA4940F0FB
:103D80007F6646F040568842D8BF002408DDD749F8
:103D90008142C8BF012403DC0024A6F580167F1CE5
:103DA000D348784400EBC4000F9690ED00CB9DED16
:103DB0000E0B53EC1C2B51EC100BFCF753FB9DED41
:103DC0000E0B41EC1B0B53EC1C2B51EC100BFCF7B6
:103DD000A8FA41EC100B51EC190B53EC102BFCF72B
:103DE000C4FB41EC1D0B51EC1B0B53EC1D2BFCF7E2
:103DF00047FB41EC1A0BBF488DED10AB7844109592
:103E000090ED000B4FF0005040EA660000EB84405C
:103E10008DED080B00F5002009909DED080B53EC8B
:103E20001C2B51EC100BFCF71DFB9DED0E1B53ECF6
:103E3000112BFCF71AFB41EC100B53EC102B9DEDF2
:103E4000100B51EC100BFCF71BFB9DED080B41EC2C
:103E50001C0B53EC102B9DED100B51EC100BFCF7D1
:103E60000FFB53EC1B2BFCF700FB53EC1C2BFCF75C
:103E7000F9FA53EC1D2BFCF703FB41EC1C0B53EC44
:103E80001A2B51EC1A0BFCF7FBFA41EC1B0B9A486E
:103E90000621B0EE4B0AF0EE6B0A784400F0F8FA17
:103EA000B0EE401AF0EE601AB0EE41DAF0EE61DAF0
:103EB00053EC1B2B51EC1B0BFCF7E2FA53EC1D2BC4
:103EC000FCF7DEFA9DED100B41EC1B0B53EC1A2BAB
:103ED00051EC100BFCF725FA53EC1C2BFCF7D0FA35
:103EE00053EC1B2BFCF71DFA9DED100B41EC1B0B4B
:103EF00053EC102B51EC100BFCF7C2FA41EC1D0BEC
:103F00009FED7FEB53EC1E2BFCF70BFA53EC1B2BB6
:103F1000FCF707FA0890CDE908519DED080B53EC2A
:103F20001E2B51EC100BFCF79DFA53EC1D2BFCF7EC
:103F300099FA53EC1B2BFCF798FA9DED080B41EC1A
:103F40001D0B53EC102B9DED100B51EC100BFCF7DF
:103F500097FA41EC1B0B53EC1A2B51EC1D0BFCF7A1
:103F60008FFA9DED080B41EC1A0B53EC102B51EC22
:103F70001C0BFCF785FA53EC1A2BFCF7D2F941EC39
:103F80001A0B51EC1B0B53EC1A2BFCF7CAF90C90D3
:103F9000CDE90C519DED0C0B53EC1B2B51EC100B90
:103FA000FCF760FA53EC1A2BFCF75FFA41EC1B0BA1
:103FB0009FED550B53EC102B9DED0C0B51EC100BA2
:103FC000FCF75EFA41EC1A0B9FED510B51EC1B0B09
:103FD00053EC102BFCF754FA41EC1B0B9FED4E0BEE
:103FE00053EC102B9DED0C0B51EC100BFCF748FA29
:103FF00053EC1B2BFCF795F941EC100B4848784427
:1040000000EBC40090ED001B51EC100B53EC112B96
:10401000FCF787F941EC1B0B3846FCF738FCCDE97F
:10402000080153EC1B2B51EC1A0BFCF77AF941EC0D
:10403000100B3C48784400EBC40090ED00CB51ECF1
:10404000100B53EC1C2BFCF76CF99DED081B53EC8B
:10405000112BFCF766F90690CDE906519DED080B92
:1040600053EC102B9DED060B51EC100BFCF7FAF9FD
:1040700053EC1C2BFCF7F6F953EC1A2BFCF7F2F976
:1040800053EC1B2BFCF7F1F941EC100B9DED261BBB
:1040900053EC102B8DED001B00959DED260B51EC84
:1040A000100BFCF7EDF99DED000B41EC1A0B53ECF6
:1040B000102B9DED260B51EC100BFCF7D3F99DED69
:1040C000061B53EC112B2FE0000000604715F73F53
:1040D000FE822B654715F73F44DF5DF80BAE543E7B
:1040E00000000000000040438E9803007AB60B00E9
:1040F00042160000701600007A1500000000000053
:104100000000000000000840000000E009C7EE3F8A
:10411000FD033ADC09C7EE3FF5015B14E02F3EBE1C
:1041200006140000C0130000FCF7AAF953EC1A2B88
:10413000FCF7F7F89DED060B41EC1A0B53EC102B36
:104140009DED000B51EC100BFCF79AF9CDE90C0139
:104150009DED0C0B51EC1A0B53EC102BFCF7E1F816
:10416000CDE902010C46AA498C422FDB611A0843B3
:1041700018D19DED0C0B53EC102B9DED020B51EC67
:10418000100BFCF76FF941EC1B0B9FEDA30B51ECEF
:104190001A0B53EC102BFCF7C4F853EC1B2BFCF759
:1041A00087FB2DD2022000F053FA00F021FA10EE26
:1041B000901A18EE900A8DED020B8DED008B61F3D5
:1041C0001E0003909DED020BFFF7BEBB944A24F046
:1041D0000041914214D39349214408437FF4EFAC4A
:1041E0009DED0C0B53EC102B9DED020B51EC100BC5
:1041F000FCF738F953EC1A2BFCF75AFB7FF6DFACCF
:1042000024F000408849894A002601EB205182426F
:104210002BDA481C4FF4801121FA00F02044844A24
:10422000C0F30A517A44A1F2FF3192ED000B814AAA
:104230008DED080BCA4020EA0202C0F3130040F4DF
:104240008010C1F1140120FA01F60992002CB8BFC8
:1042500076429DED080B53EC102B9DED0C0B51ECB1
:10426000100BFCF7FFF8CDE90C019DED0C0B51ECA8
:104270001A0B53EC102BFCF754F89FED6F0B0890C2
:10428000CDE9085153EC102B9DED080B51EC100BB0
:10429000FCF7F6F841EC1B0B9FED690B53EC102B70
:1042A0009DED080B51EC100BFCF7EAF89DED0C0BA3
:1042B00041EC1C0B53EC102B9DED080B51EC100B3B
:1042C000FCF7D0F853EC1A2BFCF7CFF89FED5E1BF0
:1042D00053EC112BFCF7D4F853EC1C2BFCF721F812
:1042E00041EC1A0B51EC1B0B53EC1A2BFCF719F891
:1042F000CDE902019DED020B53EC1B2B51EC100B91
:10430000FCF7B0F853EC1A2BFCF7AFF89DED020B5D
:1043100041EC1A0B53EC102B51EC100BFCF7B0F8DE
:10432000CDE908014A489DED080B0521784400F0CD
:10433000AFF89DED081B51EC100B53EC112BFCF763
:104340009FF89DED021B53EC112BFCF78EF8CDE985
:1043500006019DED020B53EC1A2B51EC100BFCF7F0
:104360008FF853EC1A2BFBF7DCFF9FED3B0B41EC76
:104370001A0B53EC102B9DED060B51EC100BFCF7B8
:1043800071F89DED060B41EC1B0B53EC102B9DEDD2
:10439000020B51EC100BFCF773F853EC1B2BFCF7E2
:1043A000E4F853EC1A2BFCF75DF89DED021B53EC7F
:1043B000112BFCF757F853EC192BFCF756F8CDE905
:1043C000020101EB065001150029C8BF039015DC5E
:1043D0009DED020B324651EC100BFCF741FAFFF752
:1043E000FDF9042808BF00F013F932469DED020BD9
:1043F00051EC100BFCF734FACDE902019DED020BF4
:1044000051EC180B53EC102BFCF73AF8FFF73ABBC2
:104410000000904000000000FE822B654715973C8D
:1044200000CC904000346F3F01FCFFFF0000E03FF4
:1044300048120000FFFF0F0000000000432EE63F7F
:10444000396CA80C615C20BEEF39FAFE422EE63FC3
:1044500018110000000000000000000000000040F3
:10446000BDEC088BBDEC06CBFFF720BABDEC088B8A
:10447000BDEC06CBFFF758BABDEC088BBDEC06CB04
:10448000FFF765BABDEC088BBDEC06CBFFF76DBB43
:1044900070B504462DED028B4D1E00EBC500B0EE4D
:1044A000408AF0EE608A90ED000B35F0060017D0E0
:1044B00053EC182B51EC100BFBF7E2FF41EC100B07
:1044C0006D1E04EBC50090ED001B51EC100B53EC7E
:1044D000112BFBF726FF41EC100B35F00600E7D15E
:1044E000022D36D0042D1CD0062D1CBFBDEC028B36
:1044F00070BD53EC182B51EC100BFBF7C1FF94ED82
:104500000A1B53EC112BFBF70CFF53EC182BFBF79A
:10451000B7FF94ED081B53EC112BFBF702FF41ECA6
:10452000100B53EC182B51EC100BFBF7A9FF94ED7B
:10453000061B53EC112BFBF7F4FE53EC182BFBF787
:104540009FFF94ED040B53EC102BFBF7EAFE41ECBC
:10455000100B53EC182B51EC100BFBF791FF94ED63
:10456000021B53EC112BFBF7DCFE53EC182BFBF773
:1045700087FF94ED001B53EC112BFBF7D2FEBDEC33
:10458000028B41EC100B70BD9FED070B10B553EC87
:10459000102B9FED070B51EC100BFBF7E6FF41ECE6
:1045A000100B10BD00000000000000000000000023
:1045B000000000000000F03F10B553EC112B51EC4F
:1045C000100BFBF7AEFE41EC100B10BD000000001D
:1045D0009FED050B10B553EC102B51EC100BFBF7B6
:1045E000C4FF41EC100B10BD0000000000000000F3
:1045F0009FED050B10B553EC102B51EC100BFBF796
:104600003FFF41EC100B10BD0000000000000070E7
:104610009FED050B10B553EC102B51EC100BFBF775
:104620002FFF41EC100B10BD000000000000001037
:1046300002E008C8121F08C1002AFAD1704770476B
:10464000002001E001C1121F002AFBD170470000C9
:1046500001490860704700006401002010B5002285
:1046600002212C2000F020FC0222BDE8104011465F
:104670002C2000F019BC10B504466D2240F606014E
:104680002E2000F011FC41F6060114B140F2076241
:1046900001E041F20762BDE810402E2000F0E8BBC7
:1046A00010B5002000F007F800220421BDE81040FA
:1046B000362000F0DDBB38B504466B4602220021EF
:1046C000362000F09BFA0F2C2DD2DFE804F0100802
:1046D000162C2C2C2C1E3A2C2C454A4F5600002010
:1046E0008DF800009DF8010000F0FE0019E09DF833
:1046F000000000F0FC00401C04E09DF8000000F009
:10470000FC00801C8DF800000DE09DF8000000F01A
:10471000B30040F048008DF800009DF8010040F023
:1047200080008DF801006B4601220021362000F048
:10473000C3FB0122114636200DF1010300F0BCFB42
:1047400038BD9DF8000000F0B3008DF800009DF822
:10475000010000F07F00E4E79DF8010040F0020056
:10476000DFE79DF8010000F0FD00DAE79DF80000AA
:1047700000F0CF0040F02000C4E701208DF80000D9
:104780000320CEE710B50E20FFF795FF4FF400424F
:1047900006212D2000F06CFB012000F02CF8BDE874
:1047A00010400120FFF787BF10B582B204212D20F1
:1047B00000F05EFB032206212D2000F075FB002295
:1047C00006212D2000F070FB0A21BDE810402D20AD
:1047D00000F0F5B92DE9F04116460F4604460025D4
:1047E00003E03946B047641C6D1C20780028F8D1DE
:1047F0002846BDE8F08100F07BBC002802D00620EE
:10480000FCF7DBBB704710B50620FCF785FA040007
:1048100002D00620FCF7C6FB204610BD2DE9F05F54
:1048200004460578407979494FF00009C84631F8C7
:1048300010706078401EC6B2042D79D0072D77D055
:104840000020734A8246E3791068002B416971D0D9
:1048500021F480014161217A01724169934621F47A
:1048600040324261217A4FF4403303EA01410A4366
:1048700042610021042000F008FB3A4642F60401A0
:104880002E2000F0F5FA3046FFF7F5FE614800F003
:10489000DCF8614F6149785D51F8202007212B2019
:1048A00000F0F3FA785D5E490A5C0B212B2000F0E2
:1048B000FBFA5C49282011F80A200B2100F0F4FAD9
:1048C000785D594951F820200C21282000F0DDFAAC
:1048D000E079564901EB8000A17930F811200221DE
:1048E000272000F0C5FA5248042130F8162027206E
:1048F00000F0BEFAE07910B3A078042825D0202279
:104900000621272000F0B4FA28222621272000F0D3
:10491000CBFA4848E17800EB061050F82120082136
:10492000272000F0B2FA6089B0B118E000E001E0A1
:10493000012086E741F48001FF0841618BE7642292
:104940000621272000F094FAE3E710220621272011
:1049500000F08EFA1022D8E741F24100608182B265
:104960002021272000F084FA334F0C2123203A68BD
:1049700000F08BFA07EB460004218288232000F028
:1049800077FAA07950B1E0792C490A5C0021212006
:1049900000F08AFA4FF003094FF0010805F00F000C
:1049A000290740EA116062784FF4402101EA824110
:1049B00008434FF4401202EA095108434FF4003211
:1049C00002EA4841084321794FF0F86202EA815136
:1049D0000843617940EAC16200211F2000F055FAC6
:1049E000A07861780843E179000440EA4132DBF8BD
:1049F00000000021C260082000F047FA00F020B853
:104A0000422200210D2000F04FBA0000B0520008F1
:104A100030010020140100203452000854520008D4
:104A20006C520008725200083C5200088052000884
:104A30008C52000890520008745200087C52000802
:104A400030BCBDE8C05FFFF7DBBF10B5044602789D
:104A50000B212A2000F028FA62680021BDE81040EE
:104A60001E2000F012BA000070B500210E2000F0E8
:104A7000A6F80446FFF7C7FE0546002211460E20A1
:104A800000F003FA402200210D2000F00DFA0A4A3E
:104A900000210F2000F0F9F900F0D6F9224600219C
:104AA0000E2000F0F2F92846FFF7A7FE0349002088
:104AB0000968887670BD0000F8FF272430010020C7
:104AC00070B5354C0022054621684A748A760A83FF
:104AD0008A62CA620A634A6300F08CF82F498842EE
:104AE00001D0881770BD00F055F90020FFF7E3FDF5
:104AF00004220021242000F0D7F91E20FFF754FEE5
:104B0000216886B2300A48720420FFF74DFE10F08B
:104B1000FF0F09D0022212212D2000F0C5F92068D4
:104B2000018B41F4805101830620FFF73DFE21688F
:104B300008600720FFF738FE01462068416016F044
:104B40001F01017401D110210174C8B200F019F9DC
:104B5000E80707D0FFF716FE2068018B41F40061DB
:104B6000018309E00521362000F01AF820F40072D4
:104B70000521362000F07CF90120FFF79CFD002282
:104B80000A212C2000F090F90021042000F017F8F1
:104B900021684861002070BD300100203001CADE6C
:104BA00008B589B280B26B46022200F027F89DF862
:104BB00000009DF8011000EB012080B208BD38B55F
:104BC000002489B280B26B46042200F017F803215A
:104BD0006846425C491E02EB0424FAD5204638BDE3
:104BE00008B589B280B26B46012200F007F89DF843
:104BF000000008BD00210846FFF7E1BF08B551B12C
:104C000040F040008DF80000C8B27F2907D88DF829
:104C1000010002200BE08DF80000012007E040F0C9
:104C200080008DF80100C8098DF802000320694654
:104C300000F004FA08BD30B414460A462146034683
:104C400030BC1120FFF7DABF0346052200211520F2
:104C5000FFF7D4BF0346052200211720FFF7CEBF80
:104C600070B50446400701D400F0EEF84FF48075AB
:104C70002A46E00701D04FF4407200210D2000F0D9
:104C8000F7F8E00711D003210F20FFF7A9FF000775
:104C90000BD5FFF7E9FEA00704D42A4600210D201A
:104CA00000F0E6F84FF0FF3070BD002070BD10B589
:104CB000E0220321362000F0F7F8F0220321BDE8BE
:104CC0001040362000F0F0B8024601210A2000F022
:104CD000DCB870B50E460446FFF795FD0546002189
:104CE0000E20FFF76CFF0EB1204300E0A043024608
:104CF00000210E2000F0C9F82846BDE87040FFF7FB
:104D00007CBD10B5044600211A20FFF758FFC4F3FC
:104D100013026FF3130002430021BDE810401A2074
:104D200000F0B3B8024641F604012E2000F0A0B80E
:104D300070B5064603210420FFF752FF0D4D0446CF
:104D40005EB1324600210C2000F092F8286844F051
:104D50001002416941F0805105E020F010022868FE
:104D6000416921F080514161BDE870400321042078
:104D700000F09AB83001002002460021182000F00F
:104D800077B800F01F0040F060020E212B2000F0E9
:104D90008BB8000010B5FFF783FC002211462C20D1
:104DA00000F066F8002206212C2000F07DF8FFF7C5
:104DB00055FC00220321362000F076F80120FFF791
:104DC0001AFDF0220321362000F06EF8024900207F
:104DD0000968887610BD0000300100202DE9F041FF
:104DE00000250646174F2C46800708D5802422460A
:104DF00000210D2000F058F8396801208876F0076E
:104E000016D044F0060200210D2000F04DF80321D9
:104E10000F20FFF7C5FE10F4816F0FD04022002154
:104E20000D2000F041F839680020451E887605E025
:104E300044F0020200210D2000F036F82846BDE8BB
:104E4000F08100003001002010B503210F20FFF792
:104E5000C7FE00F0800100F04000B1EB400F06D02B
:104E600001220321BDE810400D2000F01DB810BD47
:104E700008B589B28DF80020120A8DF8012080B2A1
:104E80006B46022200F018F808BD38B500236C46C6
:104E9000E254120A5B1C042BFADB89B280B223466F
:104EA000042200F009F838BD07B589B280B202AB20
:104EB000012200F001F80EBD08B551B140F0C0006C
:104EC0008DF80000C8B27F2909D88DF801000220B2
:104ED0000DE040F080008DF80000012007E040F078
:104EE00080008DF80100C8098DF802000320694692
:104EF00000F046F908BD10B50B4611181446B1F57F
:104F0000806F06D8821E21460920FFF7D5FF0020BA
:104F100010BD4FF0FF3010BD890541EAC23204498F
:104F20000968C96801430A4300210820FFF7ADBFA3
:104F30003001002082B0CDE9000121F00040019055
:104F40009DED000B02B051EC100B704710B5002224
:104F50000A60835CD400A3400C68521C23440B609D
:104F6000042AF6D310BD10B500214254120A42EAB9
:104F700003621B0A491C0429F7DB10BD70B501222E
:104F8000044615024FF0904629463046FBF7B9FF1C
:104F90000749E0B20880064A0C3A10684006FCD582
:104FA000002229463046FBF7ACFF204670BD0000CA
:104FB000283801407CB500252C466846FFF744FEA2
:104FC00004226946240244EA156428028D5C0543E4
:104FD000521EF7D5284621467CBD7CB500252C46BF
:104FE0006846FFF737FE04226946240244EA156446
:104FF00028028D5C0543521EF7D5284621467CBD0C
:1050000010B5FCF7FBFE0120FCF7C6FF05490423A1
:10501000054AC86100210548FDF780F8FDF764F8EE
:10502000002010BD000000200C0700205D2B0008B0
:105030000148006870470000280100202DE9F04178
:105040001D4616460F4680460024FFF7DCFB4FF056
:10505000904C1023CCF82830114A0BE09168890756
:10506000FCD5395D11739168C907FCD0117B641CB4
:105070002970E4B24445F1D300210F4607E01773CD
:105080009468E407FCD0147B6C54491CC9B2B1424B
:10509000F5D3CCF81830FFF7B0FB0020BDE8F08165
:1050A0000030014070B586B014216846FBF721F945
:1050B0000824012502200094CDE9015003204FF07F
:1050C0009046039069463046FBF754FE00220821C3
:1050D0003046FBF716FF0020CDE9004069460295F7
:1050E0003046FBF747FE022000F002F806B070BD24
:1050F00010B50446FFF79CFF0444FFF799FF001B1F
:105100000028FADD10BD0820FDF7B8BC2020FDF70F
:10511000B5BC00B52DED048B83B041EC190BFBF74A
:10512000F1FB41EC180B18EE100A18EE901A8DEDF9
:10513000008B002818BF0120084320F00040C0F178
:105140007F6000F1E040C00F14D019EE101A19EE84
:10515000900A8DED009B002918BF0121084320F023
:105160000040C0F17F6000F1E040C00F04BF0120AB
:10517000FFF76EFA51EC180B03B0BDEC048B00BDC9
:105180002DE9F0411D4616460F4680460024FFF7E4
:105190003AFB4FF0904C1023CCF82830124A0AE02A
:1051A00091688907FCD5395D11739168C907FCD0F6
:1051B000117B641CE4B24445F2D300210AE09468F8
:1051C000A407FCD56C5C14739468E407FCD0147BD2
:1051D000491CC9B2B142F2D3CCF81830FFF70DFB2D
:1051E0000020BDE8F0810000003001400000000018
:1051F000000000000102030406070809A086010060
:10520000400D0300801A060000350C0040420F00DC
:1052100080841E0000093D0000127A000024F40082
:1052200000366E010048E801006CDC02000000005E
:10523000010203040000010203040005405C0000B9
:10524000A05C0400C06C0800805C0400E03F1E000D
:10525000E07D1E0007040009080540080910400809
:10526000080540081D0400081D0400081E265626D7
:10527000BEBED8BC07A9022570889B8840100800D4
:105280000A001600010006000100020087008D00E0
:105290002D001A3152001A339A001A351D011A379F
:1052A0006B003B31BE003B335E013B3596023B3722
:1052B000000098599859EA518E421E45142E0080DC
:1052C000EA51F4283233E03A703DE03AC235842B9B
:1052D000C2353233C235C235AE47E03A5038A2301B
:1052E000503800000100020001000300010002002C
:1052F000010004000100020001000300010002009F
:10530000010005000100020001000300010002008D
:10531000010004000100020001000300010002007E
:10532000010006000100020001000300010002006C
:10533000010004000100020001000300010002005E
:10534000010005000100020001000300010002004D
:10535000010004000100020001000300010002003E
:10536000010007000100020001000300010002002B
:10537000010004000100020001000300010002001E
:10538000010005000100020001000300010002000D
:1053900001000400010002000100030001000200FE
:1053A00001000600010002000100030001000200EC
:1053B00001000400010002000100030001000200DE
:1053C00001000500010002000100030001000200CD
:1053D00001000400010002000100030001000200BE
:1053E0000100000000000000000000000000F03F8D
:1053F000000000000000F83F000000000000000076
:105400000000004003B8E23F000000000000000080
:1054100006D0CF43EBFD4C3E033333333333E33F0E
:10542000FFAB6FDBB66DDB3F4D268F515555D53F3A
:1054300001411DA96074D13F65DBC9934A86CD3F08
:10544000EF4E454A287ECA3F3E5555555555C53FF6
:1054500093BDBE166CC166BF2CDE25AF6A56113FE8
:10546000F16BD2C541BDBBBED0A4BE726937663EEA
:105470000000000000000000985400080000002018
:1054800068010000A6090008D8540008680100203F
:10549000583800004046000821029D0120090502FD
:1054A00008020909010213E90312882008CADE571D
:1054B000415645212A410C1E56455741101B590F94
:1054C000291BF2230931331132C01A1F01011113B4
:0854D000093D13042A023420F7
:040000050800018D61
:00000001FF
